:020000040800F2
:10000000380F0020610200086146000859430008CB
:1000100000000000000000000000000000000000E0
:10002000000000000000000000000000654900081A
:10003000000000000000000063490008B949000802
:100040007302000800000000730200087302000839
:1000500073020008730200087302000873020008AC
:100060000000000073020008730200087302000819
:100070007302000873020008730200080000000009
:10008000730200080000000000000000C5490008DD
:1000900000000000730200087302000873020008E9
:1000A000730200087302000873020008E55C000890
:1000B0004D5D00080000000000000000000000008E
:1000C00000F002F800F0BDF80CA030C80838241881
:1000D0002D18671EA246AB4654465D46AC4201D180
:1000E00000F0AFF87E460F3EB6460FCC01263342F5
:1000F00000D0FB1A3343A246AB4618479C6700006A
:10010000BC670000103A02D378C878C1FAD8520709
:1001100001D330C830C101D504680C6070470000BD
:100120000023002400250026103A01D378C1FBD813
:10013000520700D330C100D50B60704710B56E294F
:1001400002D100F02BFA10BD702902D100F05BFB48
:1001500010BD662902D105F0FBFF10BD652902D153
:1001600005F0F6FF10BD672902D105F0F1FF10BDC3
:10017000612902D105F0F4FF10BD03681B0A01D309
:1001800080231943692902D100F0D2F910BD6429F6
:1001900002D100F0CDF910BD752902D100F0C8F9E7
:1001A00010BD6F2902D100F0D9FA10BD782902D113
:1001B00000F016FB10BDE92902D100F075FA10BD60
:1001C000E42902D100F070FA10BDF52902D100F047
:1001D0006BFA10BDEF2902D100F0CCFA10BDF8295E
:1001E00002D100F00BFB10BD0368DB0901D38023B3
:1001F0001943632902D101F006F810BD732902D119
:1002000001F009F810BDE32902D101F013F810BD87
:10021000F32902D101F016F810BD002010BD1FB562
:1002200001F074F804000020002105F07BFF401C61
:1002300060600020002105F05FFFE0601FBD10B589
:1002400010BD01F03CF81146FFF7E9FF05F036FE5E
:1002500001F0D0FB03B4FFF7F2FF03BC05F002FE90
:100260000748804707480047FEE7FEE7FEE7FEE74E
:10027000FEE7FEE704480549054A064B70470000C3
:10028000C1490008C100000838090020380F0020CB
:10029000380B0020380B0020704700000FB40549D0
:1002A00010B503AA029800F08DF910BC08BC04B088
:1002B000184700008807002001E004C0091F042936
:1002C000FBD28B0701D50280801CC90700D00270C9
:1002D000704700290BD0C30702D00270401C491E92
:1002E000022904D3830702D50280801C891EE3E71C
:1002F0000022EEE70022DFE7002203098B422CD325
:10030000030A8B4211D300239C464EE003460B4365
:100310003CD4002243088B4231D303098B421CD3C7
:10032000030A8B4201D394463FE0C3098B4201D3B9
:10033000CB01C01A524183098B4201D38B01C01AF1
:10034000524143098B4201D34B01C01A5241030968
:100350008B4201D30B01C01A5241C3088B4201D317
:10036000CB00C01A524183088B4201D38B00C01AC4
:10037000524143088B4201D34B00C01A5241411AEB
:1003800000D201465241104670475DE0CA0F00D0CE
:100390004942031000D3404253409C4600220309C7
:1003A0008B422DD3030A8B4212D38901FC2212BA4D
:1003B000030A8B420CD3890192118B4208D3890125
:1003C00092118B4204D389013AD0921100E089093D
:1003D000C3098B4201D3CB01C01A524183098B421E
:1003E00001D38B01C01A524143098B4201D34B0107
:1003F000C01A524103098B4201D30B01C01A52416A
:10040000C3088B4201D3CB00C01A524183088B42F0
:1004100001D38B00C01A5241D9D243088B4201D379
:100420004B00C01A5241411A00D2014652411046B7
:1004300063465B1001D34042002B00D54942704710
:1004400063465B1000D3404201B50549002802DC39
:10045000491C084000E00846C046C04602BD00BF37
:10046000FFFFFF7F704770477047704770B50446C5
:1004700085690068C10601D5302600E02026C00746
:1004800007D070BD62683046A1689047206A401C62
:1004900020626D1EF6D570BD70B504468569007882
:1004A000C00707D170BD6268A16820209047206A0C
:1004B000401C20626D1EF6D570BD09684A0501D545
:1004C00040B27047C905FCD500B2704709684A05BB
:1004D00001D5C0B27047C905FCD580B2704770B570
:1004E0000C460546012A05D02878800600D5EA6921
:1004F000002302E0012305E05B1C934202D2E05C92
:100500000028F9D1A869E618C01AA861286AC0189D
:1005100028622846FFF7AAFF04E06A682078A968E5
:10052000641C9047B442F8D32846FFF7B5FF70BD6E
:10053000F7B5002575291068009914A611D0FFF7AA
:10054000BCFF002802DA404211A608E000990968C1
:100550008A0701D50FA602E0490704D50EA601259A
:1005600001E0FFF7B3FF009F0024243704E000F010
:1005700092FE30313955641C0028F8D12B463246A2
:100580002146009800F04DFAFEBD0000000000007A
:100590002D0000002B000000200000001168026800
:1005A000006A530501D5087009E0D30501D508801C
:1005B00005E0130602D5C21705C100E0086001205E
:1005C00070470000084B70B50D467B4400F0FDFD00
:1005D0000446284600F03AFE002802D00020C0431E
:1005E00070BD204670BD0000C3580000F7B504463A
:1005F000154686B02B487844002703C83E46009035
:10060000019111E007986A467100415A02A800F072
:1006100021FE411C07D02178890603D5E2693918EB
:1006200091420ED83F18761C2078800602D5E069EA
:10063000B84206DDAE42E5DB07987100405A00285B
:10064000E0D1A069C01BA0612046FFF70FFF15484D
:1006500078445A3803C800900020019116E0410008
:100660006A460798415A02A800F0F4FD0590401C24
:100670000AD0002505E0626802A8A168405D9047A5
:100680006D1C05988542F6D30498401CB042049036
:10069000E5DB206AC01920622046FFF7FDFE09B0A5
:1006A000F0BD0000765B0000F7B5D21D0025D20832
:1006B00015A6D200F52905CA11D0002A05DA0021B5
:1006C0004042914111A60A4608E0009909688B074B
:1006D00001D50FA602E0490701D50EA60125114656
:1006E000009F0024243704E000F05EF930323A55D0
:1006F000641C02460A43F7D12B4632462146009835
:1007000000F08FF9FEBD0000000000002D00000089
:100710002B0000002000000070B5044600212434A6
:1007200008E05507D2086D0F303565545D072A4340
:10073000DB08491C15461D43F3D10468002310A2B1
:10074000250708D520252C400C4304D0C46901237B
:100750000CA2641EC46100F064F970BD10B50446BB
:1007600021461068FFF7B2FE002302462046FFF73D
:10077000D3FF10BDD21DD108C9000CC9CCE70000C1
:100780000000000030000000F8B50F4601880905A0
:1007900002D5224C7C4402E0204C7C440E340546B9
:1007A0000021243508E016071209360FA65D6E54A5
:1007B0001E0732431B09491C16461E43F3D122462D
:1007C00004780023240705D5702F06D0002901D016
:1007D0000223113200F025F9F8BD01231032F9E7A8
:1007E00070B504460D4621461068FFF76FFE0023E2
:1007F000024629462046FFF7C7FF70BDD21DD30829
:10080000DB000CCBC0E730B403682024126823431C
:1008100003600823C36130BC0023B5E7E059000042
:10082000F3B50446002081B020622046E168884785
:10083000002872D0252802D06268A168ABE0594F29
:1008400000267F442046E16888472028054608DBCB
:10085000312D06D2781920380078002801D00643BF
:10086000F0E7B00701D5042086430020E061074689
:10087000A0612A2D0AD0284605F036FC002827D092
:10088000B8000019303D0090856119E00298BA0067
:10089000121902C8916102902046E1688847012F31
:1008A000054617D1E06900281FDA202086431CE0A6
:1008B00000980A21806948430099401930388861BE
:1008C0002046E1688847054605F00EFC0028EFD178
:1008D000012F0AD02E2D08D12046E1688847054611
:1008E000202006437F1C022FC3DBA069002803DA07
:1008F0004042A06101200643F00701D0102086434A
:100900006C2D0BD0682D09D04C2D3CD06A2D38D0E1
:10091000742D38D07A2D36D016E040E0E1682F46AD
:1009200020468847B842054609D16C2F29D00120BE
:100930008002E168064320468847054604E06C2FA4
:100940001DD0FF2001300643002D28D02846413815
:10095000192803D80120C00206432035204626600E
:100960002946029A1646FFF7E9FB002810D0012815
:100970000BD0F61DF008C0000830029055E740206B
:10098000E1E78020D5E70020D3E7361D02964CE74B
:1009900062682846A1689047206A401C44E7206AA4
:1009A000FEBD00005A5900000B4670B5024689078B
:1009B0008008084319469D08141AA941250908070B
:1009C000054308092C194841250A01060D43010A6F
:1009D0002C194141200C0D0428430D0C00194D41E8
:1009E000002140194D41C00869070843E908840FF8
:1009F0008D002543840024184D4124196D41121B9C
:100A0000AB4107E00925ED432C1152196341002445
:100A1000401C61411C460A250026551BB441F1D2F9
:100A200070BDFFB504460D4681B0243000902168AA
:100A3000880604D51022E0699143216000E001207E
:100A4000A84201DD471B00E000270498A1697A193C
:100A50001018081AA0612078C00602D42046FFF7BB
:100A600005FD002608E003986268A168805D904754
:100A7000206A401C761C206204988642F3DB2078B2
:100A8000C0060AD52046FFF7F1FC06E06268A168BF
:100A900030209047206A401C206238467F1E002884
:100AA000F4DC07E000986268A168405D9047206A26
:100AB000401C206228466D1E0028F3DC2046FFF70C
:100AC000EBFC2078000602D5022005B0F0BD012025
:100AD000FBE70000FFB50C461E468FB003CA089026
:100AE00009914F007D0D00D16D1E002108460020A8
:100AF000C0460321099A89050840002A03DA8200CA
:100B0000801840080840800D01280A9002DD00206E
:100B1000C0430A90089807430DD0F048F0492818C0
:100B200048430714189800281DD07542291E1DDD62
:100B30000A9842421BE01898012802D00020302178
:100B400004E00020F24305E02154401CB042FBDBEE
:100B500030460022189B002121540F998B600A60B7
:100B6000486013B0F0BDBD1B6D1CDFE70A9A002979
:100B700000DA69420BA800F011FC0BAB07CB03AB0A
:100B800007C30899099800F075FC6B4607C3014636
:100B9000D4480918002D00910BDDD24903980A9A18
:100BA00049424018002303A90390684600F0D2FE92
:100BB00008E003990A9A0023081803A903906846DD
:100BC00000F072FE6B4607C30004000C03D0002047
:100BD000C043410800E01046189A002A03D00022C2
:100BE000009215461EE0751E05D4FFF7DDFE30327B
:100BF00062556D1EF9D501220843079602D00022E6
:100C00007F1C04E02078302801D100227F1E002ABA
:100C1000069787D01EE0112D07DAFFF7C5FE3032A8
:100C200062556D1C02460A43F5D1084303D0009873
:100C3000002819D00EE00021681E05E0235C625CEC
:100C400063542254401E491C8142F7DBA81B401EFE
:100C500007950690079A18990020A0540F98079BB3
:100C6000069A81600CC07CE711260020189059E795
:100C7000D21DF0B50D460446D10893B0C90003C992
:100C80000C900D9105F01AFA02460D98C00F01D094
:100C90002D2007E02068810701D52B2002E04007C6
:100CA000C00F4001032A0F9001D0072A05DB03463D
:100CB0002946204600F02EFB0EE12078800601D563
:100CC000E76900E006272846652D04D0662814D081
:100CD000672D69D12DE00020112F009001DB112339
:100CE00000E07B1C0CAA03A910A8FFF7F3FE1199E2
:100CF000002610987D1C0E9142E001203B460CAA74
:100D0000C0070B900120009003A910A8FFF7E2FE96
:100D1000119D12981099002600280E9501D1781C7B
:100D20000D18781B02D446427D1C761EE81B0090ED
:100D30003AE0012F00DA01270020112F009001DD99
:100D4000112300E03B460CAA03A910A8FFF7C2FE3E
:100D500011993D46109800260E91217809070BD471
:100D60000E99A94200DA0D4603A9012D04DD4A19A6
:100D7000203AD27F302A06D0B84201DA011D04DAC7
:100D8000012100910FE06D1EEFE7002802DC8619BB
:100D90002D1A03E0411CA94200DD0D46801B401CBA
:100DA00000900120C0070B902078000705D4009820
:100DB000A84202DB0020C043009069460020C872B0
:100DC0000B98012102AF0337C907884225D00220C2
:100DD00010902B2011900B9800280BDA40420B90BA
:100DE0002D20119006E00B9800F055FA30317F1E4F
:100DF0000B9039701099481E00291090F3DC0B9865
:100E00000028F0D111987F1E38702088000501D588
:100E1000452000E065207F1E387001A8C01BC01D62
:100E20000B900F98002800D0012041190098C0179E
:100E300009180B980818A169081A401EA0612078AB
:100E4000C00602D42046FFF711FB0F98002805D0FA
:100E50006268A1689047206A401C20622078C00622
:100E600025D52046FFF702FB21E0002E07DB0E9878
:100E7000B04204DD03A86268805DA16802E0626898
:100E8000A16830209047206A761C401C20620098A0
:100E9000401E002800900AD100F038FAC06862684D
:100EA0000168405CA1689047206A401C2062284687
:100EB0006D1E0028D9DC07E062683878A1687F1CC5
:100EC0009047206A401C20620B99481E00290B9015
:100ED000F2DC2046FFF7E0FA032042E601FCFFFFC8
:100EE000104D0000E1DFFFFFD21DF0B504460D46B6
:100EF000D0088DB0C000466807683146384605F016
:100F0000DDF80246F00F01D02D2307E020688107AD
:100F100001D52B2302E04007C00F43016846002B98
:100F2000037001D0012000E00020032A0A9001D0C4
:100F3000072A04DB2946204600F0ECF92DE1207851
:100F4000800601D40D2500E0E5697000400D0D2DEF
:100F500001904BDA300D00210B9008460020C0466E
:100F6000032189050840002E05DA82008018C20F8F
:100F70001018401008408015012801DD0020C043F2
:100F8000A9000023182906D39C460A460123183AD3
:100F90001B07D34003E001221205CA4094460C31DE
:100FA000202902D33A46203900E032468A40002800
:100FB00002DD002A06D119E0002817D10121C90756
:100FC0008A4213D3194663467F185E41002806D132
:100FD0000120C007824202D1084687439E430B98F6
:100FE000310D814202D00198401C019020880005FB
:100FF00002D57149794402E06F49794419396B4649
:101000000A9830221A540A980A7C401C1A54401C30
:101010000A900198002801DC302000E0312018728D
:10102000019A0120002A02D0644BD21804E0720019
:101030003A4302D0614A521C0192002D02DC227810
:10104000120703D56A462E205072022000228646DF
:1010500094460CE032033601120F6D1E8B5C02AA1F
:1010600013546246521C401C9446052A01DA002D96
:10107000F0DC002202AE08E03B0F3F01CB5C521CCB
:101080006D1E3354401C082A01DA002DF4DC23685D
:101090009A0601D511E0401E704504DD3218203A51
:1010A000D27F302AF7D0002807DD3218203AD27FCD
:1010B0002E2A02D11A0700D4401E002D03DD3E2245
:1010C0003254401C6D1E497C31540199401C00294A
:1010D00006DA2D21471C315401984042019003E06B
:1010E0002B21471C315401987D21C900884206DB21
:1010F000FFF70CF93030F0557F1C019101E06428B6
:1011000008DB01986421FFF701F93030F0557F1CAE
:10111000019101E00A2806DB01980A21FFF7F6F8A1
:101120003030F0557F1C01980A21FFF7EFF830317D
:10113000F1550A98A1697F1C7A191018081AA06144
:101140002078C00602D42046FFF790F9216A6E4647
:101150000A980818206204E062683078A168761C5A
:1011600090470A98401E0A90401CF5D12078C0068E
:1011700002D52046FFF77AF902AE09E03078761CF6
:101180003E280DD06268A1689047206A401C20620A
:101190007F1EF3D22046FFF77FF90DB00320F0BD8C
:1011A000206A4019206203E06268A16830209047FD
:1011B0006D1EEDD3F8E70000CC51000001FCFFFFED
:1011C00001694A1C02610878704700B58FB002912E
:1011D000002105910549019379440391114604903A
:1011E0006846FFF71DFB0FB000BD0000E5FFFFFFE5
:1011F00010B54369002B02D0C046C04601E0FFF79E
:101200006EF9012010BD1278014624310A700022C7
:101210004A700122ECE711680022D243E8E710B5DA
:101220004369002B02D0C046C04601E0FFF7DEF95B
:10123000012010BD12880146243182840022C2841C
:101240000122ECE711680022D243E8E7C068802160
:1012500008407047F8B516460C46054600F04EF8B3
:101260000368FF200230C05C012807D0FF2C0FD894
:10127000185D00280CD001202C70F8BDFF333246D9
:10128000214608331868C71828460023B847F8BD18
:101290000020C043F8BD01468008081A0209101852
:1012A000020A1018020C1018C0088200121852000E
:1012B000891A01E0401C0A390A29FBD27047754699
:1012C00000F0A0FBAE46050069465346C008C000CA
:1012D000854618B020B5FEF7CDFF60BCB6460026A7
:1012E0000027C0C5C0C5C0C5C0C5C0C5C0C5C0C534
:1012F000C0C5403D490849008D46704710B500F013
:1013000005F8001D10BD00BF1D4E000000487047CD
:1013100070000020F8B51F46044601230068DB0278
:10132000032601461840072A05DB002801D017A52F
:1013300006E017A504E0002801D016A500E016A5D8
:10134000102081432160A069C01E002FA06101D040
:10135000401EA0612046FFF789F8002F09D03846CB
:101360006268A1689047206A401C2062C01C20620D
:1013700006E0206AFAE762682878A1686D1C904749
:10138000761EF8D22046FFF787F8F8BD4E414E0092
:101390006E616E00494E4600696E6600F7B51646EE
:1013A0008AB0334878446C4603467C33C06F5A6831
:1013B0009B680DC42E487844763003AC0DC80DC42C
:1013C0003720C001081837211B30FEF79FFF054664
:1013D0000C46803D1B3C02D56442012000E0002009
:1013E0000027099010E0E0070CD00C20204978433A
:1013F000794432464C3941186846012300F054FACA
:101400006B4607C364107F1C002CECD1184F7F443F
:101410002E3F16E0E80712D02001C0190EC8069131
:10142000089307920068F04201D19819089032465B
:10143000012306A903A800F037FA03AB07C36D1018
:10144000641C002DE6D10998002806D03246694672
:10145000012303A800F07EFA05E001233246694625
:1014600003A800F021FA0A9B07C30DB0F0BD0000ED
:10147000304E0000034640000A4610B5400D0BD028
:101480000121C9070F24A40200191C036408214389
:10149000540D2143D20207E000210120F2E7D40FCE
:1014A000490021435200401E0029F8DADB0FDB0718
:1014B000184310BDFFB50D46144685B04868516805
:1014C00004F0E4FD00910190A868A16804F0DEFD3D
:1014D00002910390A868616804F0D8FD029A12187E
:1014E0008242029201D2012000E00020019A0B18F2
:1014F000D2180028019202D08A4202D903E08A421F
:1015000001D2012000E000200099081800906868CE
:10151000A16804F0BBFD029A12188242029201D225
:10152000012000E00020019A0B18D2180028019237
:1015300002D08A4202D903E08A4201D2012000E0AF
:101540000020009908180090286821684000490090
:10155000400849084018FA49471814E0019940002A
:10156000C90F08430090019802994000C90F084331
:101570000190029803994000C90F08430290039814
:1015800040007F1E039000980028E7DA08980028A2
:1015900001D0EC4E00E00026B74201DA012000E065
:1015A0000020002804902AD0F71BF806C00E15D0A2
:1015B000029B2021091A039A8B401A430392029A34
:1015C000019BC2408B401A430292019A009BC24089
:1015D0008B4000991A430192C14000917B110DD0BC
:1015E0006F460320C11A03D500218200B95003E0E1
:1015F0008A008100BA587A50401EF3D537460398C6
:101600000299002800D00120014308980291002887
:1016100008460CD0002800D001200199019A490504
:1016200008430121D20AC902D202019200E001213D
:101630000E9B0122D207012B02D0002B03D013E016
:10164000002807D120E0904204D890420CD1019BA1
:101650000B4209D0019B5918019105D10099491CF1
:10166000009101D17F1C009200280DD01021084666
:101670000020C0460498002806D00F98002803D008
:10168000082108460020C04628682168019B009A6E
:101690004840C10F0598C90739430EC009B0F0BDD5
:1016A000FFB587B0099A089808995368926840680E
:1016B000896896460022039317469446089A126852
:1016C0005300099A5B081268520052089A1A9E4BFE
:1016D000D4180A9A002A01D0352200E0402206924E
:1016E0000022012315460492DB07059324E0002D18
:1016F00005D175460346039E4D1BB34109D375467C
:101700006646039B491B049D9841059B7519AC4691
:101710005F4163463B4308D0059B049EDD07760886
:101720002E435B080496059301E0521E641EC50F0C
:10173000ED0749184041521C069B9A42D7DB002D09
:1017400004D17546039A6B1A824101D203200CE042
:10175000039A0B466B404240134303D0014303D02E
:10176000012002E0022000E00020614601910021FA
:10177000009702910A99002905D061464002014371
:10178000704B019102E08007002302909C4201DA35
:10179000012000E0002007003AD01A1BD006C00E3E
:1017A00015D0029D2021019C091AC5408C4025437B
:1017B000029C8C4000D001242543019C0295009D91
:1017C000C4408D4000992C430194C14000915411B4
:1017D0001DD06D460221002202290CD10320001BDE
:1017E00007E0002804DB8600AE59002E00D001225D
:1017F000401C0328F5DB081B02D588002A5004E0B2
:101800008000285810438A00A850491EE3D51C4682
:101810000A98002802980CD0002800D001200199D5
:10182000019A490508430121D20AC902D202019254
:1018300000E00121109B0122D207012B02D0002BD6
:1018400003D013E0002807D11FE0904204D8904253
:101850000CD1019B0B4209D0019B5918019105D174
:101860000099491C009101D1641C009200280CD001
:10187000102108460020C046002F06D011980028ED
:1018800003D0082108460020C04608980999019A0B
:10189000009B006809684840C10F0798C9072143A9
:1018A00082600AC00BB0F0BD00B585B00193009214
:1018B0000A460146002302A8FFF7FCFD02A807C85C
:1018C00005B000BDFFB50A461F4685B007990193D4
:1018D00001230091014602A8FFF7ECFD029903984D
:1018E000049ECA0F4900D20700920F2249089202B3
:1018F0008C1A0021002800DB0C46450013486D08B7
:10190000844214D3079A002A04DA441E0026104D9C
:10191000F64302E004460D460E461021084600201C
:10192000C046002F03D0042108460020C0462005F1
:10193000E90A0843009908436905F20A1143ADE634
:1019400002C0FFFF013C0000FF3F0000FF07000056
:10195000FFFFFF7F00B585B0019300920A46014664
:10196000002302A8FFF79CFE02A807C8A8E7FFB55E
:101970000A461F4685B0079901930123009101464D
:1019800002A8FFF78DFE02990398049ECA0F490032
:10199000D20700920F22490892028C1A00210028D7
:1019A00000DB0C46450011486D08844214D3079AA9
:1019B000002A04DA441E00260D4DF64302E00446D8
:1019C0000D460E46102108460020C046002F03D0C9
:1019D000042108460020C0462005E90A0843009972
:1019E00008436905F20A114358E60000FF070000AA
:1019F000FFFFFF7F10B50446C046C0462046FEF7F5
:101A000029FC10BD0048704750000020024670B508
:101A10000A4392072AD11E4DEE0104C808C9541B7F
:101A20009443344017D0D0B2D9B2401A21060143B2
:101A300010D190B299B2401A210401430AD1100288
:101A40001902000A090A401A2102014302D1100EAC
:101A5000190E401A70BD9A42DFD010BA19BA8842E6
:101A600001D9012070BD0020C04370BD02780B7801
:101A7000401C491C002A09D09A4207D102780B78F1
:101A8000401C491C002A01D09A42EFD0D01A70BDE8
:101A90000101010181B000900099002008600099C7
:101AA0004860009A117AFE23194011720099487219
:101AB000009A05219172009AD072009A1073009BCF
:101AC000044A1A61009B06221A75009A517501B0EA
:101AD0007047C046E466000880B586B0944804901C
:101AE0000498006803900020029004980068002881
:101AF00004D1FFE705A90120087046E0FFE703983D
:101B00004068002804D0FFE703984068029006E090
:101B10002048FEF7C3FB05A90120087035E00399B2
:101B20008A7AC87A8018C872039AD37AEA490879FF
:101B30005843127D80180988884219DDFFE7F14972
:101B40000888039A0192127D801A0979FEF7DEFB5C
:101B50000199C8720498039900F074F8002806D11E
:101B6000FFE70399087AFE2210400872FFE7FFE7BB
:101B700002980390FFE70398049909688842BED150
:101B8000FFE705A900200870FFE705A8007806B068
:101B900080BDC0467568000880B584B00191019988
:101BA00002AA118000900098007AC007002804D093
:101BB000FFE703A9012008701AE0009902A8407805
:101BC00008730298C8720099594800F015F8002867
:101BD00006D1FFE70099087A01221043087203E05A
:101BE00003A90120087003E003A900200870FFE7A3
:101BF00003A8007804B080BD82B0019000910198E4
:101C00000068002808D1FFE7009801990860009853
:101C100000600098406012E0019800680068009938
:101C20000860019800680099486000980199096867
:101C3000096848600098019909680860FFE700207A
:101C400002B0704783B001900091009800680028AE
:101C500005D0FFE700984068002804D1FFE702A9FB
:101C6000012008702AE001980068009988420FD18D
:101C7000FFE700994868884204D1FFE701990020F6
:101C8000086004E00098406801990860FFE7FFE7FA
:101C900000984068002809D0FFE700990868496863
:101CA00008600099486809684860FFE700990020CB
:101CB00008600099486002A90870FFE702A8007850
:101CC00003B07047B0B586B0194804900498006816
:101CD000039004980068002804D1FFE705A90120BB
:101CE000087020E0FFE7039CE27A974801790846F4
:101CF0005043227B51432269237D647D0125019558
:101D00000094C0B2C9B202F085FD03984068039008
:101D1000FFE70398049909688842E4D1FFE705A921
:101D200000200870FFE705A8007806B0B0BDC046E7
:101D3000B000002080B502F009FD074B8020402153
:101D4000012200F0CBF8EF48806800F0E9F800F0DD
:101D50003BF800F0D9F880BDCC6200085D48F03057
:101D60007047C04682B0694600200870FFE76846A9
:101D70000078092819DCFFE76846007818214143FC
:101D800054484018007AC007002808D1FFE7684689
:101D90000078182141434F484018019008E0FFE7C0
:101DA0000098401C69460870E1E700200190FFE7B9
:101DB000019802B07047C0464648F921405C704720
:101DC0004448F821405C704780B584B003A90020E6
:101DD0000870FFE703A8007809280EDCFFE703A8D6
:101DE0000078182141433B484018FFF753FEFFE7B6
:101DF0000398401C03A90870ECE736480290F022D3
:101E000000218154F0300190BE4948880979FEF7DD
:101E100073FA019A029940085070F2220320885404
:101E20000648F4228850F82207208854F922052019
:101E3000885400F033F804B080BDC046EA6600085C
:101E400080B582B00090009901A801800278F34922
:101E5000087950431F4AF823D25C801809888842C9
:101E600001DDFFE718E001A84278EC49087950430A
:101E7000184AF923D25C80184988884201DDFFE7BF
:101E80000AE001981349F0228854F03101A8407803
:101E9000487000F003F8FFE702B080BDB0B582B033
:101EA0000C4C2246F032F020235CFA4801790846B7
:101EB000584352785143F422A258F823E35CF925A1
:101EC000645D012501950094C0B2C9B202F0A2FC84
:101ED00002B0B0BD38080020B400002010B584B0B6
:101EE00003AC208002A8018001A80270009303982F
:101EF000E849088002984880019808710098886035
:101F000004B010BDB400002080B5E248806800F045
:101F100007F8FFF7C3FFFFF7D5FE02F069FC80BDAD
:101F200080B584B00390039ADA490888401E498836
:101F3000491E01230193C9B20091C3B20021084692
:101F400002F068FC04B080BDB400002085B0020E31
:101F500004A9CA70020C8A700870000A48701949F6
:101F60000091002001900870C87188714871087153
:101F7000C8708870487003A9FF200870FFE70398B5
:101F8000411C03A8017001780120884002A9087053
:101F900004A84078097808420AD0FFE70398401C5B
:101FA00008490A788A1850700878401C0870FFE7C2
:101FB000FFE702A800784028E1D1FFE7014805B01B
:101FC0007047C046C000002080B584B06F4841789B
:101FD00001AA1170C078002809D0FFE7002101A8EC
:101FE00040566A4902228956884204D0FFE72748B2
:101FF000FEF754F945E065480278417809028918EE
:102000008278C0780002801800044018FFF79EFF15
:10201000009003A900200870FFE703A8007800994A
:10202000097888422DDAFFE702A900200870FFE74F
:1020300002A80078C1001448405C00281BD0FFE7CC
:10204000009803A909784018407802A90978CA00C5
:102050000D49895C884208D1FFE702A80078C100D9
:10206000094840184068804705E0FFE70298401C97
:1020700002A90870DCE7FFE70398401C03A9087079
:10208000CBE704B080BDC04604000020DE67000836
:1020900080B586B01A48FEF701F9FFF75FFE0178B8
:1020A00040780002411805A801804178091D41705F
:1020B0004178AC480290007948430390FFF77CFEDA
:1020C00002990246039880184988884210DDFFE78C
:1020D000A448009040880190FFF76EFE00990246E8
:1020E0000198801A0979FEF711F905A94870FFE7F0
:1020F000059804A908800498FFF7A2FE06B080BDE9
:1021000044680008B400002081B01E4800901E48BA
:1021100000880004002832D5FFE7FFE70098007828
:10212000A52804D0FFE70098401C0090F6E700982F
:102130000078164908700098401C009000980078BC
:1021400048700098401C00900098007888700098B3
:10215000401C0090009800785A2805D1FFE70098AD
:1021600000780A49C87003E008490020C870FFE7FA
:10217000054908880322120310400880FFE701B0D8
:102180007047C046F0050020B8060020DD0700209B
:1021900080B582B0E120400200F0B6F80948019015
:1021A000FEF77CF808480090FEF778F80748FEF73D
:1021B00075F80098FEF772F80198FEF76FF802B014
:1021C00080BDC046726800087B670008B1670008E0
:1021D00080B582B01048FEF761F8FFF7BFFD0178C7
:1021E00040780002411801A801800199891F0170FF
:1021F00002785C49087950430988884204DDFFE78A
:1022000001A900200870FFE701986946088000983E
:10221000FFF716FE02B080BD60680008B400002021
:1022200080B586B01A48FEF739F8FFF797FD0178B8
:1022300040780002411805A801800599891D0170A8
:10224000017848480290007948430390FFF7B8FDB1
:1022500002990246039880180988884210DDFFE73A
:102260004048009000880190FFF7AAFD00990246BF
:102270000198801A0979FEF749F805A90870FFE767
:10228000059804A908800498FFF7DAFD06B080BD20
:102290006A680008B400002080B50248FDF7FEFF20
:1022A00080BDC0463568000880B584B0002003902A
:1022B000FFF758FD03900398002813D0FFE7039819
:1022C0000190FFF74BFD014601980A784978090211
:1022D000891802AA11800299FFF75EFC0548FDF7F4
:1022E000DDFF03E00248FDF7D9FFFFE704B080BD42
:1022F0001C680008FF67000880B50248FDF7CEFFA4
:1023000080BDC0465668000880B582B00190019833
:1023100003F054FE02B080BD80B582B01048FDF7D6
:10232000BDFFFFF71BFD017840780002411801A8AE
:1023300001804178091F417042780A490879504369
:102340004988884204DDFFE701A900204870FFE7C3
:102350000198694608800098FFF772FD02B080BDC1
:102360004E680008B400002072B6FFE7FEE70000E8
:1023700082B000900098002804D1FFE701A9012055
:10238000087051E000982521405C02280DD0FFE73D
:1023900000990420C863FFE7009924220020885494
:1023A000FFE701A9012008703EE000980168086875
:1023B0000E22904308600098416C086801221302C5
:1023C0009843086000980168086890430860009886
:1023D000006C1C2108408240434908681043086093
:1023E0000099C86C896C48600098006D00280CD07A
:1023F000FFE70098016D086801221202904308600F
:102400000099886D496D4860FFE7009925220120F9
:102410008854FFE70099242200208854FFE7FFE753
:1024200001A900200870FFE701A8007802B07047FA
:1024300080B582B00190694600200870019825217E
:10244000405C022807D0FFE701990420C863694671
:102450000120087043E00198016808680E2290434B
:10246000086001980168086801229043086001989B
:10247000416C08681302984308600198006C1C21A5
:102480000840824018490868104308600199C86CE8
:10249000896C48600198006D00280CD0FFE7019816
:1024A000016D086801221202904308600199886D4D
:1024B000496D4860FFE70199252201208854FFE714
:1024C0000199242200208854FFE70198806B00289E
:1024D00004D0FFE70198816B8847FFE7FFE7684674
:1024E000007802B080BDC046040002408AB0099066
:1024F000089100200790FFE7089800680799C840F6
:10250000002800D147E108980068079A012191400E
:10251000084006900698002800D138E108984068E5
:1025200003210840012807D0FFE7089840680321ED
:10253000084002282CD1FFE7099880680590079889
:102540004000032181400598884305900898C168A0
:10255000079840008140059808430590059809991F
:102560008860099840680590079801218140059886
:102570008843059008984068102108400109079891
:102580008140059808430590059809994860FFE740
:102590000898406803210840032816D0FFE70998EF
:1025A000C068059007984000032181400598884342
:1025B0000590089881680798400081400598084375
:1025C000059005980999C860FFE7089840680321BD
:1025D0000840022820D1FFE709980799C908890017
:1025E0004018006A059007984007C00E0F218140EF
:1025F0000598884305900898016907984007C00E20
:10260000814005980843059005980999079AD208D2
:10261000920089180862FFE70998006805900798FA
:102620004100032002468A4005999143059108998B
:10263000496801400798400081400598084305908B
:10264000059809990860089880798007002800D1CA
:102650009CE007980321884350494058059007980B
:102660008007C00E0F218140059888430590099886
:1026700005210907884203D1FFE70020049022E0EA
:1026800009984749884203D1FFE70120039017E0EA
:1026900009984449884203D1FFE7022002900CE0E8
:1026A0000999414A0320052300939142019001D0EA
:1026B0000098019001980290FFE702980390FFE7CD
:1026C00003980490FFE7049907988007C00E8140A3
:1026D00005980843059005980799032291432F4ACE
:1026E00088503248006805900699059888430590FF
:1026F00008988079C007002805D0FFE7069905985B
:1027000008430590FFE705982849086028480068B5
:102710000590069905988843059008988079800768
:10272000002805D5FFE70699059808430590FFE7BF
:1027300005981F4908601F4800680590069905988C
:102740008843059008988079C006002805D5FFE7E2
:102750000699059808430590FFE705981549086014
:1027600015480068059006990598884305900898D3
:1027700080798006002805D5FFE70699059808436B
:102780000590FFE705980C490860FFE7FFE7079809
:10279000401C0790B0E60AB07047C046601802407F
:1027A0000004005000080050000C00508018024047
:1027B00084180240001802400418024005480068CE
:1027C0007047C0463048027802490868801808609F
:1027D0007047C0463409002080B582B001A90020AE
:1027E0000870E549086801221202104308600320BE
:1027F00000F00EF8002804D0FFE701A901200870BE
:1028000002E000F043F8FFE701A8007802B080BDC5
:1028100080B584B0039002A9002008701A4800789F
:10282000002829D0FFE7DC480068019016480178AD
:102830007D20C000FDF760FD01460198FDF75CFDBD
:1028400000F0B8FD002812D1FFE70398032809D84B
:10285000FFE703990022D04300F024F80398CA4907
:10286000086003E002A901200870FFE703E002A965
:1028700001200870FFE703E002A901200870FFE7CC
:1028800002A8007804B080BD48000020704780B5E1
:1028900082B0014601A801700021405603F08AFA77
:1028A00002B080BD80B584B0034603A803700291D6
:1028B000019200214056029903F092FA04B080BDC3
:1028C00080B584B002901A490868032252029043EE
:1028D000029A1043086002980121490288421ED1E1
:1028E000FFE7AD480168062048431249FDF704FDA3
:1028F000401C0190FFE710480068400500280DD5F6
:10290000FFE70198002804D0FFE70198401E0190DE
:1029100003E003A90320087005E0ECE7FFE703A943
:1029200000200870FFE703A8007804B080BDC0460F
:102930000070004040420F001470004080B584B029
:10294000029001910298002804D1FFE703A9012019
:1029500008700CE1019888490968072211408842F3
:1029600021D9FFE78449086807229043019A104360
:102970000860FFF723FF0090FFE77F48006807210A
:102980000840019988420DD0FFE7FFF717FF009933
:10299000401A7E49884204D3FFE703A90320087048
:1029A000E5E0EAE7FFE7029800788007002817D5FE
:1029B000FFE7029800784007002807D5FFE7C449E1
:1029C00008680722120310430860FFE7C04908683F
:1029D0000F2212029043029A926810430860FFE7A8
:1029E00002980078C007002872D0FFE7029840687C
:1029F00001280BD1FFE7BA4800688003002804D4FF
:102A0000FFE703A901200870B1E03DE002984068AB
:102A100002280BD1FFE7B24800688001002804D4E7
:102A2000FFE703A901200870A1E02CE002984068AC
:102A300000280BD1FFE7AA4800684005002804D40D
:102A4000FFE703A90120087091E01BE002984068AD
:102A500003280BD1FFE74A4800688007002804D408
:102A6000FFE703A90120087081E00AE043480068FD
:102A70008007002804D4FFE703A90120087076E04E
:102A8000FFE7FFE7FFE7FFE7914908680722904368
:102A9000029A526810430860FFF790FE0090FFE72B
:102AA0008B4800683821084002994968C90088426B
:102AB0000DD0FFE7FFF782FE0099401A33498842A4
:102AC00004D3FFE703A90320087050E0E8E7FFE71D
:102AD00001982949096807221140884221D2FFE75D
:102AE0002549086807229043019A10430860FFF7C0
:102AF00065FE0090FFE72048006807210840019923
:102B000088420DD0FFE7FFF759FE0099401A1F4990
:102B1000884204D3FFE703A90320087027E0EAE70F
:102B2000FFE702980078400700280AD5FFE76849C8
:102B30000868072212039043029AD2681043086083
:102B4000FFE700F03FF8624909680F2212021140C6
:102B50008A090C4989581F221140C8400E49086053
:102B600009480068FFF754FE03A90870FFE703A8AF
:102B7000007804B080BDC046002002405C100240D6
:102B8000601002406C6200084C00002089130000B5
:102B9000014800687047C0464400002080B582B0FC
:102BA000FFF7F6FF019001F053FD01460198090B74
:102BB0008A00034989581F221140C84002B080BDD5
:102BC000AC62000880B588B0414800688006400FBC
:102BD00000280FD1FFE7424800680721C9020840DA
:102BE000C10A01208840039003993C48FDF784FB0B
:102BF000029069E03648006838210840082803D16F
:102C0000FFE7354802905EE031480068382108400F
:102C100010283CD1FFE72F4801680322114006919C
:102C20000068702108400009401C0490069801903B
:102C3000022812D0FFE7019803280FD1FFE704997B
:102C40002548FDF759FB0146224800687F22120201
:102C50001040000A484307900EE0FFE704991F4820
:102C6000FDF74AFB01461B4800687F221202104014
:102C7000000A48430790FFE716480068400F401CD1
:102C8000059007980599FDF737FB02901AE0104868
:102C9000006838210840202804D1FFE70120C00344
:102CA00002900EE00A48006838210840182804D134
:102CB000FFE77D200002029002E000200290FFE783
:102CC000FFE7FFE7FFE7FFE7029808B080BDC046D7
:102CD000081002400C10024000127A000024F40098
:102CE0000010024010B588B006900698002804D164
:102CF000FFE707A9012008702EE306980078C007B7
:102D0000002800D188E0FC48006838210840049081
:102D1000FA4800680321084003900498102804D161
:102D2000FFE70398032804D0FFE70498082810D190
:102D3000FFE7F84800688003002809D5FFE70698F8
:102D40004068002804D1FFE707A90120087003E3C9
:102D500061E0FFE70698406801210904884207D135
:102D6000FFE7EC49086801221204104308601DE0E7
:102D7000069840680521090488420BD1FFE7E54920
:102D8000086801229304184308600868120410437D
:102D900008600AE0DF4908680122130498430860CC
:102DA0000868920490430860FFE7FFE7FFE7069892
:102DB0004068002817D0FFE7FFF700FD0590FFE708
:102DC000D4480068800300280CD4FFE7FFF7F6FC26
:102DD0000599401A652804D3FFE707A90320087066
:102DE000BAE2EDE716E0FFF7E9FC0590FFE7C94816
:102DF0000068800300280CD5FFE7FFF7DFFC05998A
:102E0000401A652804D3FFE707A903200870A3E24E
:102E1000EDE7FFE7FFE7FFE7069800788007002867
:102E200000D4A3E0B4480068382108400490B348B7
:102E300000680321084003900498102804D1FFE79C
:102E40000398022804D0FFE7049800283BD1FFE74D
:102E5000B04800684005002809D5FFE70698C0681B
:102E6000002804D1FFE707A90120087074E2AA49ED
:102E700008687F2212029043069A52691202104398
:102E800008600498002811D1FFE7A24802680721D2
:102E9000C9028A43069B1B691A4302600068084006
:102EA000C10A9E48C8409E490860FFE79D480068E7
:102EB000FFF7AEFC002804D0FFE707A90120087047
:102EC0004AE2FFE751E00698C06800282FD0FFE7EC
:102ED000904908680722D2029043069A126910436B
:102EE000086008680122120210430860FFF766FCC0
:102EF0000590FFE787480068400500280CD4FFE7ED
:102F0000FFF75CFC0599401A032804D3FFE707A9E3
:102F10000320087020E2EDE77F4908687F22120253
:102F20009043069A52691202104308601CE07949E6
:102F300008680122120290430860FFF73FFC0590E9
:102F4000FFE774480068400500280CD5FFE7FFF74D
:102F500035FC0599401A032804D3FFE707A903208D
:102F60000870F9E1EDE7FFE7FFE7FFE70698007873
:102F70000007002856D5FFE7F948006838210840C7
:102F8000182810D1FFE7F94800688007002809D504
:102F9000FFE706988069002804D1FFE707A9012010
:102FA0000870D9E13DE00698806900281CD0FFE751
:102FB000EE490868012210430860FFF7FFFB059007
:102FC000FFE7EA480068800700280CD4FFE7FFF716
:102FD000F5FB0599401A032804D3FFE707A903204E
:102FE0000870B9E1EDE71BE0E04908680122904371
:102FF0000860FFF7E3FB0590FFE7DC480068800707
:1030000000280CD5FFE7FFF7D9FB0599401A0328E4
:1030100004D3FFE707A9032008709DE1EDE7FFE770
:10302000FFE7FFE7069800784007002800D4CAE0D1
:1030300002A900200870CA480068382108402028EA
:1030400010D1FFE7CC4800688007002809D5FFE7CA
:1030500006988068002804D1FFE707A901200870BE
:103060007AE1AFE0C2480068C000002810D4FFE752
:10307000FFE7BF480268012109070A4302600068B0
:10308000084001900198FFE702A901200870FFE7BE
:10309000B8480068C00500281DD4FFE7B549086896
:1030A0000122120210430860FFF788FB0590FFE73A
:1030B000B0480068C00500280CD4FFE7FFF77EFB8E
:1030C0000599401A032804D3FFE707A903200870D5
:1030D00042E1EDE7FFE7FFE706988068012806D1A7
:1030E000FFE7A549086801221043086027E0069819
:1030F0008068052818D103E0081002400C10024037
:103100009D490868042210430860086801221043A2
:10311000086013E000100240041002400024F40094
:10312000440000204C00002093490868012290438D
:1031300008600868042290430860FFE7FFE7FFE7A4
:1031400006988068002818D0FFE7FFF737FB059046
:10315000FFE789480068800700280DD4FFE7FFF7E4
:103160002DFB0599401A8549884204D3FFE707A93A
:1031700003200870F0E0ECE717E0FFF71FFB059075
:10318000FFE77D480068800700280DD5FFE7FFF7BF
:1031900015FB0599401A7949884204D3FFE707A92E
:1031A00003200870D8E0ECE7FFE702A800780128C8
:1031B00007D1FFE76E4908680122120790430860B3
:1031C000FFE7FFE7FFE70698C069002800D1BFE0EE
:1031D000634800683821084010287AD0FFE7069835
:1031E000C06902284ED1FFE75F4908680122120634
:1031F00090430860FFF7E2FA0590FFE75A4800683D
:10320000800100280CD5FFE7FFF7D8FA0599401A8E
:10321000032804D3FFE707A9032008709CE0EDE72B
:1032200050490868574A1040069B1A6A5C6A224354
:103230009C6A24022243DC6A22431B6B1A4310431C
:103240000860494B1868012214062043186008687A
:10325000120710430860FFF7B1FA0590FFE74248F4
:103260000068800100280CD4FFE7FFF7A7FA059952
:10327000401A032804D3FFE707A9032008706BE076
:10328000EDE725E0384908680122120690430860FE
:10329000344908680322904308600868384A10409F
:1032A0000860FFF78BFA0590FFE72F480068800160
:1032B00000280CD5FFE7FFF781FA0599401A03288B
:1032C00004D3FFE707A90320087045E0EDE7FFE717
:1032D0003DE00698C069012804D1FFE707A9012055
:1032E000087039E01F4800680390039803210840E4
:1032F0000699096A884224D1FFE7039870210840A3
:103300000699496A88421CD1FFE703987F21090288
:1033100008400699896A0902884212D1FFE703989A
:103320001F21490408400699C96A884209D1FFE76C
:1033300003980721490708400699096B884204D081
:10334000FFE707A90120087006E0FFE7FFE7FFE7B6
:1033500007A900200870FFE707A8007808B010BD93
:10336000081002400C1002400010024060100240A1
:103370003C100240007000405C10024089130000C5
:10338000FFFFFEEF8C80C11F81B0009000980428E1
:1033900006D1FFE70649086804221043086005E0EB
:1033A00003490868042290430860FFE701B07047B2
:1033B00010E000E080B582B00190019801F0D4FAED
:1033C00002B080BD81B0009001B0704781B0009024
:1033D00001B0704781B0009001B0704780B582B0F5
:1033E00000900098002804D1FFE701A9012008708F
:1033F00045E000983D21405C002808D1FFE7009996
:103400003C2200208854009800F03EF8FFE7009925
:103410003D2202208854009901C901F0FDFA00996B
:10342000482201208854FFE700993E220120885459
:1034300000993F22885400994022885400994122E3
:103440008854009942228854009943228854FFE707
:10345000FFE70099442201208854009945228854AE
:10346000009946228854009947228854FFE7009922
:103470003D220120885401A900200870FFE701A81F
:10348000007802B080BD000080B584B0039003983E
:1034900000680E49884216D1FFE7FFE70C48026832
:1034A0000121C9030A4302600068084002900298A3
:1034B000FFE71320019003221146FFF7F3F901986B
:1034C000FFF7E5F9FFE704B080BDC04600200040EB
:1034D0004010024083B0019001983D21405C0128DA
:1034E00004D0FFE702A90120087038E001993D22CD
:1034F0000220885401980168C86801221043C860FE
:10350000019800681849884206D0FFE701980068D2
:103510001649884218D1FFE701980068806814496D
:1035200008400090009806280DD0FFE70098012180
:103530000904884207D0FFE7019801680868012262
:1035400010430860FFE706E001980168086801225F
:1035500010430860FFE702A900200870FFE702A8F7
:10356000007803B07047C046002C014000040040C2
:103570000700010081B0009001B0704780B582B0B3
:103580000190019800680069022108404008002865
:1035900028D0FFE701980068C06802210840400871
:1035A00000281ED0FFE7019801680220C04308618F
:1035B0000199012008770198006880698007002838
:1035C00004D0FFE70198FFF7D5FF06E0019800F06F
:1035D00027F9019800F028F9FFE701990020087702
:1035E000FFE7FFE7019800680069042108408008B0
:1035F000002829D0FFE701980068C068042108402E
:10360000800800281FD0FFE7019801680420C0430C
:103610000861019902200877019800688069800597
:10362000800F002804D0FFE70198FFF7A3FF06E012
:10363000019800F0F5F8019800F0F6F8FFE701991D
:1036400000200877FFE7FFE701980068006908217C
:103650000840C008002828D0FFE701980068C0682B
:1036600008210840C00800281ED0FFE70198016823
:103670000820C04308610199042008770198006878
:10368000C0698007002804D0FFE70198FFF772FFA8
:1036900006E0019800F0C4F8019800F0C5F8FFE7D3
:1036A000019900200877FFE7FFE7019800680069AB
:1036B000102108400009002829D0FFE70198006880
:1036C000C06810210840000900281FD0FFE70198BA
:1036D00001681020C043086101990820087701980B
:1036E0000068C0698005800F002804D0FFE70198BA
:1036F000FFF740FF06E0019800F092F8019800F013
:1037000093F8FFE7019900200877FFE7FFE70198AA
:1037100000680069C007002811D0FFE70198006821
:10372000C068C007002809D0FFE7019801680120A0
:10373000C0430861019800F07BF8FFE7FFE70198BC
:1037400000680069C0B2C009002812D0FFE70198E4
:103750000068C068C0B2C009002809D0FFE701981E
:1037600001688020C04308610198FFF72FFEFFE742
:10377000FFE7019800680069012109020840000A7A
:10378000002811D0FFE701980068C068C0B2C009E6
:10379000002808D0FFE701980168204808610198D7
:1037A000FFF710FEFFE7FFE701980068006940217E
:1037B00008408009002813D0FFE701980068C0681E
:1037C000402108408009002809D0FFE701980168DE
:1037D0004020C0430861019800F07CF8FFE7FFE754
:1037E000019800680069202108404009002813D092
:1037F000FFE701980068C0682021084040090028C0
:1038000009D0FFE7019801682020C04308610198B2
:10381000FFF7E0FDFFE7FFE702B080BDFFFEFFFF1F
:1038200081B0009001B0704781B0009001B0704746
:1038300081B000900098204988423AD1FFE71F49A3
:103840000868401C08601E480078C007002813D193
:10385000FFE71A48006800280ED0FFE71748016804
:10386000184848431849884206D8FFE714490878A1
:10387000012210430870FFE7114800788007C00F4D
:10388000002815D1FFE70D480068002810D0FFE799
:103890000A4801680D4848430321C8410C49884241
:1038A00006D8FFE706490878022210430870FFE7B0
:1038B000FFE701B07047C046E8070020C8000020BD
:1038C00034080020E1830F3E7CF0C107295C8FC2E1
:1038D00014AE470181B0009001B0704782B00190F2
:1038E0006846018002B0704781B0009001B0704717
:1038F00081B0009001B0704781B0009001B0704776
:1039000081B0009001B0704783B00290029884218A
:1039100040580190029888214058009001980099E1
:10392000084303B07047000080B5A8B00F900F980F
:103930000068C0690E900F98006800680D900F989D
:10394000006880680C900E98F24908400B900B9824
:1039500000281DD1FFE70EA800788006002816D5A4
:10396000FFE70DA800788006002806D4FFE70CA822
:10397000C078C00600280AD5FFE70F98006F00281E
:1039800004D0FFE70F98016F8847FFE77FE2FFE76A
:103990000B98002800D1FFE00C98DF49084205D1C0
:1039A000FFE70D98DD49084200D1F5E00EA8007848
:1039B000C007002810D0FFE70DA84078C0070028F6
:1039C0000AD0FFE70F980068012303620F998C2249
:1039D000885818438850FFE70EA800788007002811
:1039E00011D5FFE70CA80078C00700280BD0FFE72F
:1039F0000F980168022008620F998C2288580423CE
:103A000018438850FFE70EA800784007002811D51A
:103A1000FFE70CA80078C00700280BD0FFE70F983D
:103A20000168042008620F998C22885802231843E9
:103A30008850FFE70EA800780007002815D5FFE79B
:103A40000DA800788006002805D4FFE70C98B2493D
:103A500008420AD0FFE70F980068082303620F9915
:103A60008C22885818438850FFE70EA8407800073A
:103A7000002812D5FFE70DA8C078400700280CD514
:103A8000FFE70F9801680120C00208620F998C229D
:103A90008858202318438850FFE70F988C214058FE
:103AA000002878D0FFE70EA800788006002816D5F9
:103AB000FFE70DA800788006002806D4FFE70CA8D1
:103AC000C078C00600280AD5FFE70F98006F0028CD
:103AD00004D0FFE70F98016F8847FFE7FFE70F98D3
:103AE0008C2140580A900F98006880684021084057
:103AF000402806D0FFE70AA800782821084241D0D4
:103B0000FFE70F9801F010F90F98006880684006F1
:103B1000002832D5FFE7FFE7EFF3108017901798E2
:103B2000099001202790279880F310880F9801684A
:103B3000886840229043886009982690269880F3F0
:103B40001088FFE70F98C06F002811D0FFE70F988B
:103B5000C16FD14888630F98C06FFEF769FC0028D9
:103B600005D0FFE70F98C06F816B8847FFE703E040
:103B70000F98FFF7C5FEFFE703E00F98FFF7C0FEC1
:103B8000FFE707E00F98FFF7BBFE0F998C2200209C
:103B90008850FFE7FFE77AE10F98C06E012800D058
:103BA00014E10EA80078C006002800D40EE10DA88C
:103BB0000078C006002800D408E10F9801681020A2
:103BC00008620F98006880684006002800D48FE0E3
:103BD0000F98C06F0068416808A80180008800281D
:103BE00000D184E008A800880F995C22895A884295
:103BF00000DB7CE008980F995E2288520F98C06F16
:103C0000006800688006002867D4FFE7FFE7EFF34D
:103C1000108016901698079001222592259880F31F
:103C200010880F980168086812029043086007988E
:103C30002490249880F31088FFE7FFE7EFF31080CB
:103C400015901598069001222392239880F31088EE
:103C50000F9801688868904388600698229022989F
:103C600080F31088FFE7FFE7EFF3108014901498BB
:103C7000059001202190219880F310880F98016809
:103C8000886840229043886005982090209880F3AF
:103C90001088FFE70F998822202088500F99002074
:103CA000C866FFE7EFF3108013901398049001208B
:103CB0001F901F9880F310880F98016808681022E1
:103CC0009043086004981E901E9880F31088FFE7C8
:103CD0000F98C06FFEF74CFBFFE70F985C21415A2D
:103CE0005E22825A891A89B2FFF7F8FDFFE7CEE01B
:103CF0000F9A5C20105A5E21525A801A03AA108033
:103D00000F98405A002860D0FFE703A800880028D9
:103D10005BD005E00F080000010000102001000446
:103D2000FFE7EFF3108012901298029001201D908F
:103D30001D9880F310880F980168086809225201C5
:103D40009043086002981C901C9880F31088FFE74D
:103D5000FFE7EFF3108011901198019001201B9064
:103D60001B9880F310880F9801688868494A1040B2
:103D7000886001981A901A9880F31088FFE70F99CD
:103D80008822202088500F990020C8660F99086764
:103D9000FFE7EFF310801090109800900120199029
:103DA000199880F310880F980168086810229043D2
:103DB000086000981890189880F31088FFE70F9813
:103DC00003A90988FFF78AFDFFE760E00EA8807865
:103DD000C00600280FD5FFE70CA880784006002811
:103DE00009D5FFE70F9801680120000508620F98C8
:103DF000FFF782FD4BE00EA800780006002816D5DC
:103E0000FFE70DA800780006002806D4FFE70CA8FD
:103E10008078000600280AD5FFE70F98406F002839
:103E200004D0FFE70F98416F8847FFE72FE00EA807
:103E30000078400600280AD5FFE70DA80078400664
:103E4000002804D5FFE70F9800F0CAFF1FE00EA876
:103E50008078000600280AD5FFE70DA8C078400644
:103E6000002804D5FFE70F98FFF742FD0FE00EA8EA
:103E7000C078C00700280AD0FFE70DA8C078000668
:103E8000002804D5FFE70F98FFF72EFDFFE728B0C5
:103E900080BDC046FEFFFFEF054D000880B582B033
:103EA00000900098002804D1FFE701A901200870C4
:103EB0004AE000988069002801D0FFE700E0FFE7B2
:103EC000009884214058002808D1FFE700998022FB
:103ED00000208854009800F03BF8FFE70099842206
:103EE00024208850009801680868012290430860E7
:103EF000009801F0AFFB012804D1FFE701A90120E0
:103F0000087021E00098806A002804D0FFE700983C
:103F100000F0F6FDFFE70098016848680922D20228
:103F2000904348600098016888682A22904388601E
:103F3000009801680868012210430860009800F0AA
:103F40008DFE01A90870FFE701A8007802B080BDCE
:103F500080B590B00F900F980068EF49884236D135
:103F6000FFE7FFE73948026802210A430260006860
:103F7000084009900998FFE7FFE7354802680121EA
:103F800089030A4302600068084008900898FFE728
:103F900040200A9002200B9001210C910D902D4899
:103FA00003900AA90491FEF7A1FA039804998022CC
:103FB0000A9212220B92FEF799FA1B200590032217
:103FC0001146FEF76FFC0598FEF761FCFFE70F98BE
:103FD0000068D649884237D1FFE7FFE7F248026818
:103FE00001210A4302600068084007900798FFE734
:103FF000FFE719480268012149040A43026000688A
:10400000084006900698FFE704200A9002200B90D3
:1040100001210C910D900520000700900AA9019143
:10402000FEF764FA0098019908220A9212220B9274
:10403000FEF75CFA1C20029003221146FEF732FCC8
:104040000298FEF724FCFFE710B080BD3410024058
:1040500040100240000400503C10024080B588B07F
:104060000390029101A802800398882140582028DB
:1040700060D1FFE70298002805D0FFE701A800887B
:10408000002804D1FFE704A90120087056E0039836
:10409000806801210903884210D1FFE70398006975
:1040A00000280BD1FFE702A80078C007002804D041
:1040B000FFE704A90120087040E0FFE7FFE703984D
:1040C0008021405C012804D1FFE704A90220087088
:1040D00034E00399802201208854FFE7FFE7039929
:1040E0000020C8660398006840680002002818D5C0
:1040F000FFE7FFE7EFF3108005900598009001229D
:104100000792079880F31088039801680868920660
:104110001043086000980690069880F31088FFE727
:10412000FFE70398029901AA128801F0FBFB04A99A
:10413000087003E004A902200870FFE704A80078D3
:1041400008B080BD10B582B00190694600200870AB
:10415000019800687049884240D1FFE76F480088A5
:104160000004002839D4FFE76C4800884004002888
:1041700011D5FFE76A4800780A2804D0FFE76749AD
:104180000020088006E0654908880122D203104318
:104190000880FFE720E0624800780D2807D1FFE79C
:1041A0005E490888012292031043088013E05C48AE
:1041B00001785A4803885B4A13405B4AD15401880E
:1041C000491C01800088C82804DBFFE75349002010
:1041D0000880FFE7FFE7FFE7FFE7FFE701980068D8
:1041E0005249884200D094E05148007869460870EE
:1041F000009B5048048850490C40504A135503888E
:104200005B1C038003880B400021D15401880122EC
:1042100092031143018040780006002849D4FFE74B
:10422000474800780007002836D5FFE74448007863
:10423000C006002807D4FFE741480078072108405E
:10424000022823D1FFE73E49087810221043087066
:10425000684600785A2807D1FFE7364908880122C6
:10426000D203104308800DE036490878401C0870DE
:104270003548FCF713F82F49088803221203104031
:104280000880FFE72E490020087004E02C490878D8
:10429000401C0870FFE70BE068460078A52806D1AF
:1042A000FFE727490878082210430870FFE7FFE777
:1042B000FFE72448007814280ADBFFE721490020A3
:1042C00008701F4908701B4908801C490870FFE7E7
:1042D0001848008818490840C82819DBFFE71B4820
:1042E000FBF7DCFF134908880F22120310400880F7
:1042F00008880322130302461A40012424031219DA
:104300001A40104308800D48C821FBF7F1FFFFE772
:10431000FFE702B010BDC046003801408207002010
:10432000DC070020FF3F0000BA06002000440040E8
:1043300084070020B8060020FF0F0000F0050020D1
:10434000CC000020CD000020F16600086067000866
:1043500081B0009001B07047FFE7FEE780B586B0FE
:10436000FFE7B148026802210A4302600068084082
:1043700000900098FFE70320C00201900120029006
:104380000390022004900520000701A9FEF7AEF873
:1043900090490878102210430870087808221043CA
:1043A000087006B080BDC0463410024082B001A93A
:1043B0000870FFE7052001070868032212069043F2
:1043C000086008680122120610430860FFE781496F
:1043D0000878F72210400870694600200870FFE74F
:1043E0006846007807282CDCFFE701A80078000663
:1043F000002806D5FFE77749087810221043087097
:1044000005E074490878EF2210400870FFE7019832
:10441000400001A9087000BF6E49087808221043C7
:10442000087000BF00BF00BF00BF00BF00BF08781A
:10443000F72210400870FFE70098401C694608709A
:10444000CEE702B07047C046FFE7052001070868C5
:1044500003221206904308600868012212061043E6
:104460000860FFE75B49087810221043087008785D
:1044700008221043087000BF0878EF22104008702F
:1044800000BF0878F722104008707047FFE705204A
:104490000107086803221206904308600868012299
:1044A000120610430860FFE74A490878F7221040D7
:1044B00008700878EF221040087000BF08780822C2
:1044C00010430870087810221043087000BF70472E
:1044D00080B582B001A900910870FFF7B5FF782080
:1044E000FFF764FF00F036F80020FFF75FFF00F0F1
:1044F00031F800980078FFF759FF00F02BF8FFF72C
:10450000C5FF02B080BD80B582B0019068460180D1
:10451000FFF79AFF7820FFF749FF00F01BF84020D3
:10452000FFF744FF00F016F8FFE76A461088411EC7
:10453000118000280AD0FFE701980078FFF736FFC6
:1045400000F008F80198401C0190EEE7FFF79EFF8D
:1045500002B080BD80B582B0694600200870FFE7D8
:1045600005200107086803221206904308600868C6
:104570000860FFE717490878102210430870087890
:1045800008221043087000BFFFE7134800680121AC
:1045900009030840000B00280FD0FFE70098411CDA
:1045A000684601700078FB2806DBFFE7FFF76EFF27
:1045B00001A90120087009E0E7E706490878F72219
:1045C0001040087001A900200870FFE701A80078DA
:1045D00002B080BD150000501000005080B588B0BA
:1045E000079006A801800020059004900390029097
:1045F0000190FFE7FFE70C48026802210A430260CE
:104600000068084000900098FFE7FFE706A80088D0
:10461000019001200290002003900490079801A9C6
:10462000FDF764FF08B080BD3410024080B582B051
:10463000054801210191FFF7D1FF019A034908784C
:104640001043087002B080BD0004005014040050F4
:10465000024800680721090308407047081002401B
:10466000FFE7FEE780B582B001A900200870FFE7F0
:1046700001A8007807281EDCFFE7694600200870C3
:10468000FFE7684600787F280FDCFFE76846007880
:10469000C1005F48411801A8027800208854FFE754
:1046A0000098401C69460870EBE7FFE70198401C42
:1046B00001A90870DCE700F09BF802B080BDC0469D
:1046C00086B0034605A8037004AB197003A90A70ED
:1046D0006A460021117000787F2805DCFFE704A8F6
:1046E0000078402801DBFFE72DE004A90878C20824
:1046F0000720821A02AB1A700A78024001A90A70D8
:104700000978411A012088406946087003A800789A
:1047100000280CD0FFE7009B05A80078C1003C48AA
:10472000411802A80278885C184388540BE0009B6B
:1047300005A80078C1003648411802A80278885CB4
:1047400098438854FFE706B07047C04680B5FFF72E
:1047500005FEAE2000F0EDF8D52000F0EAF850207C
:1047600000F0E7F8A82000F0E4F83F2000F0E1F8BE
:10477000D32000F0DEF8002000F0DBF8402000F04D
:10478000D8F88D2000F0D5F8142000F0D2F82020C1
:1047900000F0CFF8012000F0CCF8A12000F0C9F81B
:1047A000C02000F0C6F8DA2000F0C3F8122000F0B4
:1047B000C0F8812000F0BDF8EF2000F0BAF8D92051
:1047C00000F0B7F8F12000F0B4F8DB2000F0B1F809
:1047D000302000F0AEF8A42000F0ABF8A62000F0E6
:1047E000A8F8AF2000F0A5F8FFF73CFF80BD00005F
:1047F00080B5B02000F09DF8002000F09AF810205D
:1048000000F097F802480121890200F09CF880BD71
:10481000CE00002070B58EB014460D4606461399A2
:10482000129A0DA806700CAE35700B940AAC23706A
:1048300009AB1A7008AA117000787F2805DCFFE721
:104840000CA80078402801DBFFE770E00D9807A96D
:1048500008700C9806A9087009A80178C80800908B
:104860004907401C0029019001D10098019001994D
:104870000AA80078484304A9088003A900200880FA
:10488000FFE703A8008804A9098888424FDAFFE7F8
:104890000B98007805A9087002A900200870FFE7AE
:1048A00002A80078072839DCFFE705A80078000691
:1048B000002809D5FFE707A8007806A9097808AA03
:1048C0001278FFF7FDFE0AE007A8007806A909782C
:1048D00008AA127853425A41FFF7F2FEFFE7059803
:1048E000400005A908700698411C06A801700078D0
:1048F0000CA90978401A09A90978884208D1FFE76C
:104900000C9806A908700798401C07A9087005E0D4
:10491000FFE70298401C02A90870C1E70B98401CF1
:104920000B90FFE70398401C03A90880A9E70EB08D
:1049300070BD80B582B0014601A801700078FFF714
:10494000C7FD02B080BD80B584B0019101460198D9
:10495000039102A9088003980988FFF7D4FD04B0E9
:1049600080BD70477047000080B584B00290029807
:10497000401E000E002803D0FFE70120039011E045
:104980000298401E0949086000200190C04303219D
:1049900001F026FA019806490860064A07211160CD
:1049A0000390FFE7039804B080BDC04614E000E028
:1049B00018E000E010E000E080B5FDF703FF80BDE7
:1049C0007047000080B51348FEF7D8FD80BDC04693
:1049D00080B584B001910146019803AA118002A913
:1049E00008800C48434B03600988416000218160C6
:1049F0001288C260016180218161FEF7EFFC00280E
:104A000003D0FFE7FDF7B0FCFFE70248FEF762FDC9
:104A100004B080BDE807002083B0029001910298A5
:104A20000068009002983149884205D0FFE702985B
:104A30002F4988420AD1FFE70098702188430090EF
:104A400001984168009808430090FFE702982749C1
:104A5000884214D0FFE70298254988420FD0FFE72B
:104A60000298244988420AD0FFE7029822498842E6
:104A700005D0FFE70298214988420BD1FFE7009853
:104A800003210902884300900198C16800980843F7
:104A90000090FFE700988021884301994969084305
:104AA0000090009802990860019880680299C86295
:104AB000019800680299886202980C4988420AD0DD
:104AC000FFE702980C49884205D0FFE702980B499E
:104AD000884205D1FFE70198006902990863FFE762
:104AE00002990120486103B07047C046002C014084
:104AF0000004004000200040004401400048014004
:104B000081B0009000982821405CC00700280CD09C
:104B1000FFE7009800684068012149048843009934
:104B2000CA6A104309684860FFE700982821405C82
:104B3000800700280CD5FFE7009800684068012135
:104B40000904884300990A6B104309684860FFE72D
:104B500000982821405C400700280CD5FFE700980A
:104B60000068406801218904884300994A6B10431A
:104B700009684860FFE700982821405C000700288A
:104B80000CD5FFE70098006840680121C9038843FD
:104B900000998A6B104309684860FFE70098282154
:104BA000405CC00600280CD5FFE7009800688068CC
:104BB0000121090388430099CA6B10430968886082
:104BC000FFE700982821405C800600280CD5FFE70D
:104BD00000980068806801214903884300990A6CA5
:104BE000104309688860FFE700982821405C400670
:104BF00000281DD5FFE700980068406801210905DD
:104C00008843009A536C1843126850600098406CB7
:104C100088420CD1FFE700980068406803214905ED
:104C2000884300998A6C104309684860FFE7FFE7F2
:104C300000982821405C000600280CD5FFE700986A
:104C4000006840680121C90488430099CA6C104378
:104C500009684860FFE701B07047000080B584B084
:104C6000029002998C2200208850FDF7A7FD019048
:104C70000298006800680007002811D5FFE7029835
:104C8000019B1F49009101214905002200F060FFAE
:104C9000002804D0FFE703A9032008702CE0FFE7F9
:104CA0000298006800684007002811D5FFE70298C5
:104CB000019B1349009101218905002200F048FF62
:104CC000002804D0FFE703A90320087014E0FFE7E1
:104CD00002998422202088500299882288500299C3
:104CE0000020C866FFE70299802200208854FFE771
:104CF00003A900200870FFE703A8007804B080BD76
:104D0000FFFFFF0180B582B001900198806A00909A
:104D100000995E22002088520099562288520098FD
:104D2000FEF7EEFD02B080BD8DB00390FFE7EFF31C
:104D3000108006900698029001200C900C9880F349
:104D4000108803980168086809225201904308609E
:104D500002980B900B9880F31088FFE7FFE7EFF3C2
:104D6000108005900598019001200A900A9880F320
:104D70001088039801688868184A10408860019874
:104D80000990099880F31088FFE70398C06E012806
:104D900018D1FFE7FFE7EFF310800490049800902C
:104DA00001200890089880F310880398016808682B
:104DB00010229043086000980790079880F31088AD
:104DC000FFE7FFE7039988222020885003990020FD
:104DD000C866039908670DB07047C046FEFFFFEF35
:104DE00080B586B00290FFE7EFF310800390039840
:104DF000019001200590059880F3108802980168C1
:104E0000086840229043086001980490049880F359
:104E10001088FFE702998422202088500299002000
:104E200048670298FFF794FA06B080BD80B590B04D
:104E3000069006986021405A04A9088006988821A7
:104E40004058222800D088E006980068406A03A9EC
:104E500008800698806D059003980499084005998C
:104E600008800699886D801C8865069A5E21505AD4
:104E7000401E50520698405A00286DD1FFE7FFE7C8
:104E8000EFF3108009900998029001200F900F987D
:104E900080F310880698016808680922520190433F
:104EA000086002980E900E9880F31088FFE7FFE7E5
:104EB000EFF3108008900898019001220D920D9850
:104EC00080F310880698016888689043886001988C
:104ED0000C900C9880F31088FFE706998822202018
:104EE00088500699002008670698C06E01282ED1C8
:104EF000FFE706990020C866FFE7EFF310800790F0
:104F00000798009001200B900B9880F3108806986A
:104F10000168086810229043086000980A900A9877
:104F200080F31088FFE706980068C06910210840E8
:104F30000009012805D1FFE70698016810200862E2
:104F4000FFE706985C21415AFEF7C8FC03E006988B
:104F5000FFF7F8F8FFE7FFE706E0069801688869C1
:104F6000082210438861FFE710B080BD80B59EB075
:104F70000E900E986021405A0CA908800E98006887
:104F8000C06908900E980068006807900E98006845
:104F9000806806900E9888214058222800D043E16E
:104FA0000E986821405A0AA90880FFE70AA80188DC
:104FB00000200029009007D0FFE708A800782021F2
:104FC000084040090090FFE70098C007002800D182
:104FD000E6E00E980068406A0BA908800E98806D84
:104FE0000D900B980C9908400D9908800E99886DCA
:104FF000801C88650E995E22885A401E88520E9841
:105000000068C069089008A800784007002853D0BD
:10501000FFE708A80078C007002810D0FFE707A81E
:105020004078C00700280AD0FFE70E9800680123E7
:1050300003620E998C22885818438850FFE708A80D
:1050400000788007002811D5FFE706A80078C00780
:1050500000280BD0FFE70E980168022008620E9925
:105060008C228858042318438850FFE708A800784A
:105070004007002811D5FFE706A80078C0070028E0
:105080000BD0FFE70E980168042008620E998C226D
:105090008858022318438850FFE70E988C21405807
:1050A000002808D0FFE70E98FEF72AFC0E998C2204
:1050B00000208850FFE7FFE70E985E21405A002845
:1050C0006DD1FFE7FFE7EFF3108013901398059081
:1050D00001221D921D9880F310880E9801680868BF
:1050E00012029043086005981C901C9880F3108869
:1050F000FFE7FFE7EFF31080129012980490012071
:105100001B901B9880F310880E98016888684C4AA1
:105110001040886004981A901A9880F31088FFE76E
:105120000E998822202088500E99002008670E983A
:10513000C06E01282ED1FFE70E990020C866FFE758
:10514000EFF3108011901198039001201990199895
:1051500080F310880E980168086810229043086058
:1051600003981890189880F31088FFE70E9800684D
:10517000C069102108400009012805D1FFE70E98F9
:10518000016810200862FFE70E985C21415AFEF783
:10519000A5FB03E00E98FEF7D5FFFFE7FFE705E765
:1051A0000E985E21415A09A80180008800283AD053
:1051B000FFE709A800880E996822895A884232DAE6
:1051C000FFE7FFE7EFF310801090109802900122A4
:1051D0001792179880F310880E9801688868120754
:1051E0009043886002981690169880F31088FFE725
:1051F0000E9912480867FFE7EFF310800F900F98A1
:10520000019001201590159880F310880E98016880
:10521000086820221043086001981490149880F3C5
:105220001088FFE7FFE706E00E980168886908220A
:1052300010438861FFE71EB080BDC0462D4E0008B8
:10524000FEFFFFEF80B590B0069006986021405AAF
:1052500005A90880069888214058222800D086E0B9
:1052600006980068406A04A90880049805990840D7
:105270000699896D08700699886D401C8865069AA4
:105280005E21505A401E50520698405A00286DD157
:10529000FFE7FFE7EFF310800990099803900120E2
:1052A0000F900F9880F3108806980168086809220B
:1052B00052019043086003980E900E9880F3108876
:1052C000FFE7FFE7EFF310800890089802900122B3
:1052D0000D920D9880F310880698016888689043B5
:1052E000886002980C900C9880F31088FFE706996C
:1052F0008822202088500699002008670698C06EF2
:1053000001282ED1FFE706990020C866FFE7EFF3DA
:10531000108007900798019001200B900B9880F364
:105320001088069801680868102290430860019868
:105330000A900A9880F31088FFE706980068C06911
:10534000102108400009012805D1FFE706980168EF
:1053500010200862FFE706985C21415AFEF7BEFA6A
:1053600003E00698FEF7EEFEFFE7FFE706E006988B
:1053700001688869082210438861FFE710B080BD8A
:1053800080B59EB00E900E986021405A0DA90880FD
:105390000E980068C06909900E980068006808902F
:1053A0000E980068806807900E988821405822283F
:1053B00000D041E10E986821405A0BA90880FFE710
:1053C0000BA8018800200029019007D0FFE709A859
:1053D00000782021084040090190FFE70198C007AC
:1053E000002800D1E4E00E980068406A0CA908800B
:1053F0000C980D9908400E99896D08700E99886D6A
:10540000401C88650E995E22885A401E88520E986C
:105410000068C069099009A800784007002853D0A7
:10542000FFE709A80078C007002810D0FFE708A808
:105430004078C00700280AD0FFE70E9800680123D3
:1054400003620E998C22885818438850FFE709A8F8
:1054500000788007002811D5FFE707A80078C0076B
:1054600000280BD0FFE70E980168022008620E9911
:105470008C228858042318438850FFE709A8007835
:105480004007002811D5FFE707A80078C0070028CB
:105490000BD0FFE70E980168042008620E998C2259
:1054A0008858022318438850FFE70E988C214058F3
:1054B000002808D0FFE70E98FEF722FA0E998C22FA
:1054C00000208850FFE7FFE70E985E21405A002831
:1054D0006DD1FFE7FFE7EFF310801390139806906C
:1054E00001221D921D9880F310880E9801680868AB
:1054F00012029043086006981C901C9880F3108854
:10550000FFE7FFE7EFF3108012901298059001205B
:105510001B901B9880F310880E98016888684C4A8D
:105520001040886005981A901A9880F31088FFE759
:105530000E998822202088500E99002008670E9826
:10554000C06E01282ED1FFE70E990020C866FFE744
:10555000EFF3108011901198049001201990199880
:1055600080F310880E980168086810229043086044
:1055700004981890189880F31088FFE70E98006838
:10558000C069102108400009012805D1FFE70E98E5
:10559000016810200862FFE70E985C21415AFEF76F
:1055A0009DF903E00E98FEF7CDFDFFE7FFE707E763
:1055B0000E985E21415A0AA80180008800283AD03E
:1055C000FFE70AA800880E996822895A884232DAD1
:1055D000FFE7FFE7EFF3108010901098039001228F
:1055E0001792179880F310880E9801688868120740
:1055F0009043886003981690169880F31088FFE710
:105600000E9912480867FFE7EFF310800F900F988C
:10561000029001201590159880F310880E9801686B
:10562000086820221043086002981490149880F3B0
:105630001088FFE7FFE706E00E98016888690822F6
:1056400010438861FFE71EB080BDC0464552000888
:10565000FEFFFFEF80B58EB00D9008A90020087006
:105660000D9988680A6910434A691043C96908435B
:105670000C900D9800680068A34908400C990843F5
:105680000D99096808600D980068406803210903B6
:1056900088430D99CA681043096848600D9880696D
:1056A0000C900D98016A0C9808430C900D980068B6
:1056B0008068964908400C9908430D9909688860EC
:1056C0000D980068C06A0F2188430D994A6A1043FB
:1056D0000968C862FFE70D9800688D4988422AD1A1
:1056E000FFE78D48006803210840059003281DD876
:1056F0000598810001A040588746C0460D57000814
:105700001D57000815570008255700080AA9002052
:1057100008700FE00AA9022008700BE00AA9042013
:10572000087007E00AA90820087003E00AA9102001
:105730000870FFE70EE00D9800687649884204D1B2
:10574000FFE70AA90020087003E00AA910200870EA
:10575000FFE7FFE7FFE70D98C0690121C903884211
:1057600067D1FFE70AA800780490082825D8049894
:10577000810001A0405887469D570008BB5700088C
:10578000A5570008BB570008AB570008BB570008D7
:10579000BB570008BB570008B3570008FDF7FEF9D8
:1057A000069010E05D4806900DE0FDF70BFA0690BC
:1057B00009E00120C003069005E00020069008A93A
:1057C00001200870FFE70698002831D0FFE706980F
:1057D0000D990391496A4A005149895AFAF78CFD9B
:1057E0000399400049684A088018FAF785FD80B29D
:1057F00009900998102816D3FFE709A840880028C7
:1058000011D1FFE709990F2081430BA80180099965
:105810000E2211404A080B991143018000880D990E
:105820000968C86003E008A901200870FFE7FFE7E6
:105830005AE00AA800780290082826D80298810029
:1058400001A040588746C0466D5800088B58000894
:10585000755800088B5800087B5800088B580008C2
:105860008B5800088B58000883580008FDF796F9FC
:10587000069010E0294806900DE0FDF7A3F9069088
:1058800009E00120C003069005E00020069008A969
:1058900001200870FFE70698002824D0FFE706984B
:1058A0000D990191496A4A001D49895AFAF724FD68
:1058B000019949684A088018FAF71EFD80B20990DC
:1058C000099810280AD3FFE709A84088002805D1C5
:1058D000FFE709980D990968C86003E008A901204D
:1058E0000870FFE7FFE7FFE70D996A220120885261
:1058F0000D99682288520D99002008670D99486714
:1059000008A800780EB080BDF369FFCFFFF4FF1147
:105910000038014000440040541002400024F400CC
:10592000CC66000893B00690059104A80280059803
:1059300006998865049806995C228852049806990D
:105940005E228852069900200867FFE70698806863
:1059500001210903884210D1FFE706980069002859
:1059600005D1FFE7069960227448885204E0069941
:105970006022FF208852FFE732E006988068002806
:1059800010D1FFE706980069002805D1FFE70699C6
:105990006022FF20885204E0069960227F2088520E
:1059A000FFE71CE00698806801210907884210D1B2
:1059B000FFE706980069002805D1FFE706996022F5
:1059C0007F20885204E0069960223F208852FFE73A
:1059D00004E00699602200208852FFE7FFE7FFE716
:1059E000FFE706998C220020885006998822222001
:1059F0008850FFE7EFF310800A900A980390012285
:105A00001292129880F310880698016888681043F3
:105A1000886003981190119880F31088FFE706982A
:105A2000406E01214907884251D1FFE704A8008850
:105A300006996822895A884249DBFFE70698806800
:105A400001210903884209D1FFE70698006900286F
:105A500004D1FFE706993D48086703E006993A48F4
:105A60000867FFE7FFE70699802200208854FFE7D8
:105A7000FFE7EFF31080099009980290012210923D
:105A8000109880F310880698016808681202104385
:105A9000086002980F900F9880F31088FFE7FFE7E7
:105AA000EFF3108008900898019001220E920E9852
:105AB00080F3108806980168886812071043886090
:105AC00001980D900D9880F31088FFE732E006985A
:105AD000806801210903884209D1FFE7069800691F
